:020000040800F2
:10000000008001208D040008DD040008DD040008E4
:10001000DD040008DD040008DD0400080000000025
:10002000000000000000000000000000DD040008E7
:10003000DD04000800000000DD040008DD04000805
:1000400000000000DD040008DD040008DD040008F5
:10005000DD040008DD040008DD040008DD040008FC
:10006000DD040008DD040008DD04000800000000D5
:100070000000000000000000000000000000000080
:100080000000000000000000DD0400080000000087
:10009000000000000000000000000000DD04000877
:1000A000DD040008DD040008DD040008DD040008AC
:1000B000DD040008DD040008DD040008DD0400089C
:1000C000DD040008DD040008DD040008DD0400088C
:1000D000DD040008DD040008DD0400080000000065
:1000E000DD040008DD040008DD0400080000000055
:1000F0000000000000000000000000000000000000
:1001000000000000DD040008DD040008DD04000834
:1001100000000000000000000000000000000000DF
:1001200000000000000000000000000000000000CF
:1001300000000000000000000000000000000000BF
:10014000000000000000000000000000DD040008C6
:10015000000000000000000000000000DD040008B6
:10016000DD040008DD0400080000000000000000BD
:10017000000000000000000000000000000000007F
:1001800000000000DD040008000000000000000086
:04019000DD04000882
:1001940010B5054C237833B9044B13B10448AFF3BD
:1001A40000800123237010BD000000200000000027
:1001B4008406000808B5034B1BB103490348AFF399
:1001C400008008BD00000000040000208406000830
:1001D40080B485B000AF78600023FB6002E0FB6868
:1001E4000133FB607B6840F6B83202FB03F3FA6824
:1001F4009A42F4D300BF00BF1437BD465DF8047BB8
:10020400704780B586B000AFF8600B467A607B819A
:100214000121786800F0F0F97B893B6101233B758B
:1002240002237B750023BB750123FB7507F11003C3
:100234001946F86800F051F900BF1837BD4680BD73
:1002440080B586B000AFF8600B467A607B810121EF
:10025400786800F0D1F97B893B6100233B75022368
:100264007B750123FB7507F110031946F86800F04C
:1002740034F900BF1837BD4680BD80B483B000AFE9
:1002840078600B467B8013467B707B78012B03D10F
:100294007B687A881A8302E07B687A885A8300BF75
:1002A4000C37BD465DF8047B704780B483B000AF63
:1002B40078600B467B807B681A697B881340002B2F
:1002C40014BF01230023DBB218460C37BD465DF88A
:1002D400047B704780B584B000AF0023FB73012317
:1002E400BB7300237B73012220216448FFF789FF3D
:1002F400012202216148FFF784FF02224FF40051DA
:100304005F48FFF77EFF012208215C48FFF779FF71
:1003140001224FF480615948FFF773FF04224FF420
:1003240000715848FFF76DFF012210215348FFF771
:1003340087FF022201215248FFF782FF0023BB609E
:1003440012E0012220214D48FFF797FFC820FFF754
:100354003FFF002220214948FFF78FFFC820FFF705
:1003640037FFBB680133BB60BB68012BE9DD10219B
:100374004248FFF79AFF0346002B59D1FB7B013318
:10038400FB7300BF10213D48FFF78FFF0346002B8E
:10039400F8D03220FFF71CFFFB7B022B48D100234F
:1003A4007B6040E0012202213448FFF766FF01220E
:1003B4004FF400513248FFF760FF012208212F4813
:1003C400FFF75BFF01224FF480612C48FFF755FFD4
:1003D40001224FF400712B48FFF74FFFC820FFF7AD
:1003E400F7FE002202212548FFF747FF00224FF4C1
:1003F40000512348FFF741FF002208211F48FFF75F
:100404003CFF00224FF480611C48FFF736FF0022B6
:100414004FF400711B48FFF730FFC820FFF7D8FEE8
:100424007B6801337B607B68012BBBDD0023FB739E
:1004340001211348FFF739FF0346FB70FB78002BBB
:1004440018D1BB7B002B15D07B7B002B0CBF012369
:100454000023DBB27B737B7B002B14BF01230023BF
:10046400DBB21A464FF400510548FFF706FF32206D
:10047400FFF7AEFEFB78BB7379E700BF00000240D4
:1004840000040240000802400D488546AFF3008096
:100494000C480D490D4A002302E0D458C4500433DB
:1004A400C4188C42F9D30A4A0A4C002301E01360B1
:1004B4000432A242FBD300F0BFF8FFF70BFFFEE7C4
:1004C400008001200000002000000020A406000895
:1004D400000000201C000020FEE780B487B000AFBD
:1004E4007860396000237B6100233B610023FB605B
:1004F40000237B6176E001227B6902FA03F33B610E
:100504003B681B683A691340FB60FA683B699A428E
:1005140065D17B681A687B695B00032101FA03F3E8
:10052400DB431A407B681A607B681A683B681B7956
:1005340019467B695B0001FA03F31A437B681A606E
:100544003B681B79012B03D03B681B79022B2ED10E
:100554007B689A687B695B00032101FA03F3DB4340
:100564001A407B689A607B689A683B685B79194695
:100574007B695B0001FA03F31A437B689A607B682A
:100584005A687B699BB2194601238B40DB431A40AE
:100594007B685A607B685B683A68927911467A692D
:1005A40092B201FA02F292B21A437B685A607B68F3
:1005B400DA687B699BB25B00032101FA03F3DB4336
:1005C4001A407B68DA607B68DA683B68DB79194635
:1005D4007B695B0001FA03F31A437B68DA607B6989
:1005E40001337B617B690F2B85D900BF1C37BD4666
:1005F4005DF8047B7047000080B483B000AF78607E
:100604000B46FB70FB78002B06D00A4B1A6B09498A
:100614007B6813430B6306E0064B1A6B7B68DB4372
:10062400044913400B6300BF0C37BD465DF8047BDF
:10063400704700BF0038024070B50D4D0D4C641B6F
:10064400A4100026A64209D10B4D0C4C00F018F85A
:10065400641BA4100026A64205D170BD55F8043BC6
:1006640098470136EEE755F8043B98470136F2E720
:100674009C0600089C0600089C060008A0060008CA
:10068400F8B500BFF8BC08BC9E467047F8B500BF7B
:08069400F8BC08BC9E4670474B
:04069C00B901000898
:0406A00095010008B8
:040000050800048D5E
:00000001FF
